{
  "contractName": "DocStamp",
  "abi": [
    {
      "constant": true,
      "inputs": [
        {
          "name": "",
          "type": "bytes32"
        }
      ],
      "name": "records",
      "outputs": [
        {
          "name": "",
          "type": "address"
        }
      ],
      "payable": false,
      "stateMutability": "view",
      "type": "function"
    },
    {
      "constant": true,
      "inputs": [],
      "name": "name",
      "outputs": [
        {
          "name": "",
          "type": "bytes32"
        }
      ],
      "payable": false,
      "stateMutability": "view",
      "type": "function"
    },
    {
      "constant": true,
      "inputs": [],
      "name": "detail",
      "outputs": [
        {
          "name": "",
          "type": "bytes32"
        }
      ],
      "payable": false,
      "stateMutability": "view",
      "type": "function"
    },
    {
      "constant": true,
      "inputs": [],
      "name": "owner",
      "outputs": [
        {
          "name": "",
          "type": "address"
        }
      ],
      "payable": false,
      "stateMutability": "view",
      "type": "function"
    },
    {
      "constant": false,
      "inputs": [
        {
          "name": "newOwner",
          "type": "address"
        }
      ],
      "name": "transferOwnership",
      "outputs": [],
      "payable": false,
      "stateMutability": "nonpayable",
      "type": "function"
    },
    {
      "anonymous": false,
      "inputs": [
        {
          "indexed": true,
          "name": "record",
          "type": "bytes32"
        },
        {
          "indexed": false,
          "name": "timestamp",
          "type": "uint256"
        }
      ],
      "name": "CertificateIssued",
      "type": "event"
    },
    {
      "anonymous": false,
      "inputs": [
        {
          "indexed": true,
          "name": "previousOwner",
          "type": "address"
        },
        {
          "indexed": true,
          "name": "newOwner",
          "type": "address"
        }
      ],
      "name": "OwnershipTransferred",
      "type": "event"
    },
    {
      "constant": false,
      "inputs": [
        {
          "name": "name",
          "type": "bytes32"
        },
        {
          "name": "details",
          "type": "bytes32"
        }
      ],
      "name": "issueCertificate",
      "outputs": [
        {
          "name": "",
          "type": "bytes32"
        }
      ],
      "payable": false,
      "stateMutability": "nonpayable",
      "type": "function"
    },
    {
      "constant": true,
      "inputs": [],
      "name": "owningAuthority",
      "outputs": [
        {
          "name": "",
          "type": "address"
        },
        {
          "name": "",
          "type": "address"
        }
      ],
      "payable": false,
      "stateMutability": "view",
      "type": "function"
    },
    {
      "constant": true,
      "inputs": [
        {
          "name": "name",
          "type": "bytes32"
        },
        {
          "name": "details",
          "type": "bytes32"
        }
      ],
      "name": "verifyCertificate",
      "outputs": [
        {
          "name": "",
          "type": "bool"
        }
      ],
      "payable": false,
      "stateMutability": "view",
      "type": "function"
    }
  ],
  "bytecode": "0x60806040527f726168756c0000000000000000000000000000000000000000000000000000006002557f696969742d687964000000000000000000000000000000000000000000000000600355336000806101000a81548173ffffffffffffffffffffffffffffffffffffffff021916908373ffffffffffffffffffffffffffffffffffffffff1602179055506107888061009b6000396000f3fe60806040526004361061008e576000357c0100000000000000000000000000000000000000000000000000000000900463ffffffff16806301e647251461009357806306fdde031461010e5780631b853182146101395780631f75435d146101c357806357bcf883146102205780636b7cc44f146102795780638da5cb5b146102a4578063f2fde38b146102fb575b600080fd5b34801561009f57600080fd5b506100cc600480360360208110156100b657600080fd5b810190808035906020019092919050505061034c565b604051808273ffffffffffffffffffffffffffffffffffffffff1673ffffffffffffffffffffffffffffffffffffffff16815260200191505060405180910390f35b34801561011a57600080fd5b5061012361037f565b6040518082815260200191505060405180910390f35b34801561014557600080fd5b5061014e610385565b604051808373ffffffffffffffffffffffffffffffffffffffff1673ffffffffffffffffffffffffffffffffffffffff1681526020018273ffffffffffffffffffffffffffffffffffffffff1673ffffffffffffffffffffffffffffffffffffffff1681526020019250505060405180910390f35b3480156101cf57600080fd5b50610206600480360360408110156101e657600080fd5b8101908080359060200190929190803590602001909291905050506103b6565b604051808215151515815260200191505060405180910390f35b34801561022c57600080fd5b506102636004803603604081101561024357600080fd5b810190808035906020019092919080359060200190929190505050610488565b6040518082815260200191505060405180910390f35b34801561028557600080fd5b5061028e6105dc565b6040518082815260200191505060405180910390f35b3480156102b057600080fd5b506102b96105e2565b604051808273ffffffffffffffffffffffffffffffffffffffff1673ffffffffffffffffffffffffffffffffffffffff16815260200191505060405180910390f35b34801561030757600080fd5b5061034a6004803603602081101561031e57600080fd5b81019080803573ffffffffffffffffffffffffffffffffffffffff169060200190929190505050610607565b005b60016020528060005260406000206000915054906101000a900473ffffffffffffffffffffffffffffffffffffffff1681565b60025481565b6000806000809054906101000a900473ffffffffffffffffffffffffffffffffffffffff1633809050915091509091565b600080838360405160200180838152602001828152602001925050506040516020818303038152906040528051906020012090506000809054906101000a900473ffffffffffffffffffffffffffffffffffffffff1673ffffffffffffffffffffffffffffffffffffffff166001600083815260200190815260200160002060009054906101000a900473ffffffffffffffffffffffffffffffffffffffff1673ffffffffffffffffffffffffffffffffffffffff16141561047c576001915050610482565b60009150505b92915050565b60008060009054906101000a900473ffffffffffffffffffffffffffffffffffffffff1673ffffffffffffffffffffffffffffffffffffffff163373ffffffffffffffffffffffffffffffffffffffff161415156104e557600080fd5b60008383604051602001808381526020018281526020019250505060405160208183030381529060405280519060200120905060405160200180600001905060405160208183030381529060405280519060200120811415151561054857600080fd5b336001600083815260200190815260200160002060006101000a81548173ffffffffffffffffffffffffffffffffffffffff021916908373ffffffffffffffffffffffffffffffffffffffff160217905550807fb373023449b41c09a963fbc6f475bf6574114ed41b6a41eb8ee5ac78301ff0ff426040518082815260200191505060405180910390a28091505092915050565b60035481565b6000809054906101000a900473ffffffffffffffffffffffffffffffffffffffff1681565b6000809054906101000a900473ffffffffffffffffffffffffffffffffffffffff1673ffffffffffffffffffffffffffffffffffffffff163373ffffffffffffffffffffffffffffffffffffffff1614151561066257600080fd5b600073ffffffffffffffffffffffffffffffffffffffff168173ffffffffffffffffffffffffffffffffffffffff161415151561069e57600080fd5b8073ffffffffffffffffffffffffffffffffffffffff166000809054906101000a900473ffffffffffffffffffffffffffffffffffffffff1673ffffffffffffffffffffffffffffffffffffffff167f8be0079c531659141344cd1fd0a4f28419497f9722a3daafe3b4186f6b6457e060405160405180910390a3806000806101000a81548173ffffffffffffffffffffffffffffffffffffffff021916908373ffffffffffffffffffffffffffffffffffffffff1602179055505056fea165627a7a7230582000d3fdb13d281b14f412fd93ce74394e5278bd833b9e007d1476648d364640100029",
  "source": "pragma solidity ^0.5.0;\n\nimport './Ownable.sol';\n\ncontract DocStamp is Ownable {\n  mapping (bytes32 => address) public records;\n\n  bytes32 public name = \"rahul\";\n  bytes32 public detail = \"iiit-hyd\";\n\n  event CertificateIssued(bytes32 indexed record, uint256 timestamp);\n\n  function issueCertificate(bytes32 name, bytes32 details) external onlyOwner returns (bytes32) {\n    bytes32 certificate = keccak256(abi.encodePacked(name, details));    \n    require(certificate != keccak256(abi.encodePacked(\"\")));\n    records[certificate] = msg.sender;\n    emit CertificateIssued(certificate, block.timestamp);\n    return certificate;\n  }\n\n  function owningAuthority() external view returns (address, address) {   \n    return (owner, msg.sender);\n  }\n\n  function verifyCertificate(bytes32 name, bytes32 details) external view returns (bool) {\n    bytes32 certificate = keccak256(abi.encodePacked(name, details));\n    // if certificate are same or not\n    // if (certificate == certificate2) {\n      // check if exists on blockchain or not\n      if (records[certificate] == owner) {\n        return true;\n      } \n    // }\n    return false;\n  }\n}",
  "sourcePath": "/home/fnatic/Simple-Certificates-on-ethereum/contracts/DocStamp.sol",
  "compiler": {
    "name": "solc",
    "version": "0.5.0+commit.1d4f565a.Emscripten.clang"
  },
  "schemaVersion": "3.0.9",
  "updatedAt": "2019-05-17T20:17:06.743Z",
  "devdoc": {
    "methods": {
      "transferOwnership(address)": {
        "details": "Allows the current owner to transfer control of the contract to a newOwner.",
        "params": {
          "newOwner": "The address to transfer ownership to."
        }
      }
    }
  },
  "userdoc": {
    "methods": {}
  }
}